:10000000000003209901000051090000BB0C000012
:10001000BD0C0000BF0C0000C10C0000000000007F
:10002000000000000000000000000000C30C000001
:10003000C50C000000000000C70C0000C90C000047
:10004000CB0C0000CB0C0000CB0C0000CB0C000054
:10005000CB0C0000CB0C0000CB0C0000CB0C000044
:10006000CB0C0000CB0C0000CB0C0000CB0C000034
:10007000CB0C0000CB0C0000CB0C0000CB0C000024
:10008000CB0C0000CB0C0000CB0C0000CB0C000014
:10009000CB0C0000CB0C0000CB0C0000CB0C000004
:1000A000CB0C0000CB0C0000CB0C0000CB0C0000F4
:1000B000CB0C0000CB0C0000CB0C0000CB0C0000E4
:1000C000CB0C0000CB0C0000CB0C0000CB0C0000D4
:1000D000CB0C0000CB0C0000CB0C0000CB0C0000C4
:1000E000CB0C0000CB0C0000CB0C0000CB0C0000B4
:1000F000CB0C0000CB0C0000CB0C0000CB0C0000A4
:10010000CB0C0000CB0C0000CB0C0000CB0C000093
:10011000CB0C0000CB0C0000CB0C0000CB0C000083
:10012000CB0C0000CB0C0000CB0C0000CB0C000073
:10013000CB0C0000CB0C0000CB0C0000CB0C000063
:10014000CB0C0000CB0C0000CB0C0000CB0C000053
:10015000CB0C0000CB0C0000CB0C0000CB0C000043
:10016000CB0C0000CB0C0000CB0C0000CB0C000033
:10017000CB0C0000CB0C0000CB0C0000CB0C000023
:10018000CB0C0000CB0C0000CB0C0000CB0C000013
:10019000CB0C0000CB0C00000B490C4808800C482D
:1001A00008800C490C4808800C490D4A0D4B9B1ADD
:1001B00005DD00240859105104349C42FADB0A483A
:1001C00080470A48004700000E20054020C5000077
:1001D00028D9000000200540D2010000388E000020
:1001E0009801FF1F4C02FF1FCD0C00006D040000A2
:10040000FFFFFFFFFFFFFFFFFFFFFFFFFEFDFFFFFF
:1004100010B5054C237833B9044B13B10448AFF33E
:1004200000800123237010BD4C02FF1F000000005C
:10043000048E0000084B10B51BB108480849AFF303
:1004400000800848036803B910BD074B002BFBD0A0
:10045000BDE81040184700BF00000000048E0000F7
:100460005002FF1F4C02FF1F00000000154B002B25
:1004700008BF134B9D46A3F5803A00218B460F46DB
:100480001348144A121A02F01DFB0F4B002B00D028
:1004900098470E4B002B00D0984700200021040005
:1004A0000D000D48002802D00C48AFF3008002F088
:1004B0006BFA2000290000F0C9FB01F005FF00BF26
:1004C0000000080000000320000000000000000001
:1004D0004C02FF1F0005FF1F00000000000000008D
:1004E00070B50A4D06680FCD86B001AC0FC42B68FD
:1004F000236006AA331302EB8303F6B253F8143CCD
:100500001869F04000F0010006B070BD08810000DD
:1005100070470000F0B50B4D06680F460FCD87B051
:1005200001AC0FC42B68236006AA331302EB8303CC
:10053000F1B253F8140C3A4607B0BDE8F04000F0B1
:100540008DBC00BF0881000010B5054C2046FFF7A8
:10055000C7FFC0F101012046BDE81040FFF7DABF38
:10056000C003FF1F10B5054C2046FFF7B9FFC0F1CF
:1005700001012046BDE81040FFF7CCBF0403FF1F78
:1005800010B5054C2046FFF7ABFFC0F10101204636
:10059000BDE81040FFF7BEBF0803FF1F10B5054BB5
:1005A0000360044600F062FF204600F089FF204609
:1005B00010BD00BF7884000010B5044601F046FE6F
:1005C000204610BD10B5064B036003F118024C33F2
:1005D0000446C26303643C3000F0C2FE204610BDF6
:1005E000C8830000A0F13C00FFF7ECBFA0F1400081
:1005F000FFF7E8BF10B50446FFF7D0FF204601F033
:1006000025FE204610BD0000F7B5057810F8014F13
:10061000303CE4B2002610F8017F27B1303F0A23B6
:1006200003FB0676F7E70096264827492A46234625
:1006300000F0F2FE472D11D0522D02D0422D3DD1B7
:1006400019E0224D284600F011FF012C204819D056
:100650003946FFF75FFF7EB31E4B1CE01E4D284658
:1006600000F004FF012C1D480CD03946FFF752FF63
:1006700016B31B4B0FE01B4D284600F0F7FE012C74
:10068000194803D12146FFF745FF15E03946FFF72A
:1006900041FF8EB1154B9FED167AAB6107EE906A64
:1006A000F8EEE77AEF6267EE877A2846FCEEE77AA3
:1006B00017EE901A00F0E2FE012001E04FF0FF304B
:1006C00003B0F0BDA402FF1F1C8100009003FF1FB8
:1006D000C003FF1F490500006003FF1F0403FF1F45
:1006E00065050000BC02FF1F0803FF1F8105000015
:1006F0000024744938B51648164C0121FFF70AFF4B
:1007000015480121FFF706FF14480121FFF702FFFA
:1007100000232360124800F0D9FD0028FAD01148C8
:1007200000F070FEC5B229460F4800F05FFE0D2DA7
:100730000E4A01D00A2D07D121680C4800235354DA
:100740002360FFF761FFE5E72368D5540133E0E755
:10075000C003FF1F0003FF1F0403FF1F0803FF1F49
:100760000C03FF1F4803FF1FA402FF1FEC02FF1F23
:1007700010B50446FFF726FF204601F067FD20462E
:1007800010BDA0F13C00F3E7A0F14000F0E700004D
:100790002F482DE9F04141F216010024046000F0D9
:1007A000EDFE2C482C4F046044F21A0100F0E6FEE6
:1007B0002A482B4D046041F2150100F0DFFE294E5E
:1007C000DFF8B8802346384642F20F0142F20E02AB
:1007D00000F036FD3846244F31462A4601F038FDF8
:1007E0002346384641F2110141F2100200F028FD83
:1007F00031461E4E2A46384601F02AFD1C4F30462F
:1008000000F07AFEC6F80080B461F4623046194EFA
:1008100039462A4601F01CFD304600F06DFEC6F850
:100820000080B461F4623046134E39462A4601F026
:100830000FFD304600F060FEB461C6F80080F4623F
:10084000304639462A46BDE8F04101F001BD00BFFF
:10085000C003FF1F0403FF1F0C03FF1F0803FF1F3C
:100860009801FF1FC50500006802FF1F9003FF1FCE
:100870009D0500006003FF1FBC02FF1F788400007D
:1008800070B586B072B641F21601684600F076FE89
:1008900028E01D4D0FCD01AC0FC432132B6823602F
:1008A00006A901EB8203F1B253F8140C012200F007
:1008B000D5FA962000F076FF009E731C1CD0124DD6
:1008C0000FCD01AC0FC42B682360321306A901EBD6
:1008D0008203F1B253F8140C002200F0BFFA962004
:1008E00000F060FF009E721CD3D108480849202206
:1008F00000F0D4FD009ECCE704480549202200F01A
:10090000CDFD009EDBE700BF488100005C81000058
:10091000748100000B4A30B4936894681A465CB93D
:10092000094A03F5CC7553F8044B42F8044FAB4227
:10093000F9D1044B054A9A60103030BC42F82010BF
:10094000704700BF00ED00E0FCFFFE1F0000FF1F2E
:1009500000B583B001A8042100F0FEFD03B05DF8EE
:1009600004FB00BF036870B51B6900210122044627
:100970009847431C05460ED0236820461B6900217A
:10098000022298472368064629461B692046002212
:100990009847304670BD70BD084B094A026010B4DC
:1009A00003F58071002453F8042B824208BF43F8FA
:1009B000044C8B42F7D15DF8044B7047C403FF1F12
:1009C000088200000A4B0B4A10B503F580710446FB
:1009D0000260002053F8042B944208BF43F8040C33
:1009E0008B42F7D1204601F031FC204610BD00BFFC
:1009F000C403FF1F08820000034841F2110141F2C5
:100A0000100200F043BA00BFF804FF1FF0B50E4615
:100A100085B03549054603F0BAFC20B9334B1B6855
:100A200063B105B0F0BD2846314903F0B0FC78B998
:100A30002E4B1B6843B1012005B0F0BD0190FFF7BC
:100A4000DBFF019805B0F0BDFFF7D6FF0120E8E716
:100A50002846284903F09BFC10B3274B002402E0F2
:100A60000134402C21D053F8040F0028F8D12B7802
:100A70003A2B32D0294602A800F07EFB02A800F0F3
:100A8000CDFB90B102A800F0B1FB88B102A800F044
:100A9000B7FB03464BB1194AE01C42F82430C0E7CB
:100AA000124B1B68ABB10220BBE74FF0FF30B8E739
:100AB00002A800F08FFB05460028F6D0036802A8C4
:100AC0009F6800F085FB324601462846B84703463A
:100AD000E0E7FFF791FF0220A3E72846084902AAB2
:100AE00003F0E6FB029BD5E7E4810000C404FF1F8E
:100AF000F4810000EC810000C003FF1FC403FF1F4E
:100B000030820000022808B50BDDC21E074B53F8E7
:100B10002200002143F8221028B103685B6898473F
:100B200008BD002008BD4FF0FF3008BDC403FF1F03
:100B3000022870B50C4616460FDC0E4B1B680BB92D
:100B4000FFF75AFFA51936B114F8011B0A4800F047
:100B5000F3FAAC42F8D1304670BD0338074B53F876
:100B6000200018B103681B68984770BD4FF0FF3034
:100B700070BD00BFC404FF1FF804FF1FC403FF1FA4
:100B8000022810B50C4609DC0D4B1B688BB10D48D3
:100B900000F082FA01232070184610BD03380A4B7A
:100BA00053F8200040B103689B68984703461846F5
:100BB00010BDFFF721FFEAE74FF0FF33ECE700BF7E
:100BC000C404FF1FF804FF1FC403FF1F022808B559
:100BD00008DD0338064B53F8200028B10368DB68B2
:100BE000984708BD012008BD4FF0FF3008BD00BF89
:100BF000C403FF1F022808B508DD0338064B53F86D
:100C0000200028B103681B69984708BD002008BD73
:100C10004FF0FF3008BD00BFC403FF1F022808B516
:100C200004D84FF400534B60002008BD01F046FB90
:100C3000092303604FF0FF3008BD00BF08B5012055
:100C400001F042FB704700BF704700BF08B5FFF7D7
:100C5000FBFFFFF7F7FFBDE80840FFF74BBD00BF04
:100C6000074A13681844EFF30881884202D21060E3
:100C700018467047034B0C221A604FF0FF30704744
:100C80009C01FF1FFC04FF1F074C08B523680546A5
:100C9000986801F035FC2368D86801F031FC05B98B
:100CA000FEE7FFF7EDFDFBE70002FF1F002103F069
:100CB00003BA00BF01F062BCFEE7FEE7FEE7FEE715
:100CC000FEE7FEE7FEE7FEE7FEE7FEE74A4A4B4B9C
:100CD0004B49F0B4D2F888604CF2205546F47006C7
:100CE0004DF628144FF4E970C2F88860DD81DC818C
:100CF00018800B78DE075FD5424B9A78150775D4BC
:100D0000414B424E4249434A434D41F244004FF069
:100D10008A742A2737701C501C6824F4402441F23E
:100D2000040044F400241C601C5824F4403444F4AF
:100D300080341C5041F2380400201E5946F40076DD
:100D40001E518B6C23F0807323F4E0638B6410726C
:100D5000517801F09F0141F020018024BA235170A5
:100D60002C701146107313708B792A4AD806FBD465
:100D7000D0781823132100F01F00D0701171537127
:100D8000537943F040035371937922495B06FBD5B5
:100D90000B7803F03F030B708B7903F00C030C2BE3
:100DA000FAD1194A41F24803F0BCD15821F00F01A1
:100DB00041F00901D150704741F23C021249174BF2
:100DC000885840F0005088501A69D40598D41A69A0
:100DD00022F47C5242F440721A611A6942F4807221
:100DE0001A611A6922F400721A6189E79A7842F04E
:100DF00008029A7084E700BF00ED00E00020054083
:100E000000F0074000D007400070044000E00740B9
:100E100000900440004006400050064000D00340CF
:100E20001F2908B50ED8012A07D04369012202FA0A
:100E300001F123EA0101416108BD43698A401A4377
:100E4000426108BD0248034A034B2C2101F00CFA11
:100E50005482000040820000E48200001F2908B58F
:100E600007D8012303FA01F10AB9816008BD416086
:100E700008BD0348034A044B402101F0F5F900BFC7
:100E800054820000F0820000E48200002DE9F04767
:100E9000044686B0084689465849904600F0D6FB7D
:100EA00057490546404600F0D1FB0146284600F070
:100EB000BBFB431C206000F09A8000F0F3FE514B16
:100EC000514E21688246186800F03AFF0FCE6D46F9
:100ED0000FC596E80300276885E8030006A800EB25
:100EE000870706AD57F8180C00F02CFE236806AAF9
:100EF00002EB8303514653F8180C4FF4165200F0DE
:100F00003BFE23683D4905EB8302002352F8182C71
:100F10009078C0B29070226805EB8202484652F881
:100F2000182C02F1047252011375226805EB82023B
:100F300052F8182C02F10472023252011374226822
:100F400005EB820252F8182C02F1047203325201AE
:100F50001373226805EB820252F8182C02F1047216
:100F600003325201137200F03FFB4046244900F067
:100F70003BFBB9F1FF3F17D0236806A800EB8303C2
:100F800053F8180C00F080FE236806AA02EB8303D6
:100F9000012253F8183C03F1047303335B01484604
:100FA0001A73022100F0BAFFB8F1FF3F0FD0236897
:100FB00006AD05EB8303012253F8183C03F10473DB
:100FC00003335B0140461A72022100F0A7FF236839
:100FD00013B106B0BDE8F0870C4B0D482146042242
:100FE00001241C6006B0BDE8F04701F060BD09486F
:100FF0000949342200F052FA20685EE78C8700002D
:10100000FC8600007085000008830000C404FF1FF8
:10101000F804FF1F208300003883000010B4044B45
:1010200004680448196040F824205DF8044B7047B8
:10103000DC04FF1FC804FF1F70B5164D06460FCD18
:1010400086B06C460FC495E80300336884E803005B
:1010500006AA02EB8303032153F8180C00F0B8FD35
:1010600040B1336806AA02EB8303032153F8180C3E
:1010700000F0D0FD336806AA02EB830353F8183C56
:1010800003F1047304335B01187D003018BF0120A5
:1010900006B070BD0883000070B5044688B02046D5
:1010A000FFF7CAFF0028FAD00A4D26680FCD02AC20
:1010B0000FC495E8030008AB84E8030003EB860641
:1010C0000DF1070156F8180C00F07EFD9DF80700A1
:1010D00008B070BD0883000070B5164D06460FCDF0
:1010E00086B06C460FC495E80300336884E80300BB
:1010F00006AA02EB8303032153F8180C00F068FDE5
:1011000040B1336806AA02EB8303032153F8180C9D
:1011100000F080FD336806AA02EB830353F8183C05
:1011200003F1047304335B01187F003018BF012002
:1011300006B070BD08830000F0B5044687B00E46C7
:101140002046FFF7C9FF0028FAD00A4D27680FCDC7
:101150006C460FC495E8030006AB84E8030003EB7C
:101160008707F1B257F8180C07B0BDE8F04000F05F
:1011700027BD00BF0883000038B50023036043602B
:101180000A782F2A044601D0204638BD4A78002A22
:10119000FAD0481C20604A782F2A14D0B2B18D1C96
:1011A000194600E052B125602A782F2A2B4601F11A
:1011B000010105F10105F5D10133236000F0E2FFE3
:1011C0006060204638BD19460346F5E71146F5E74D
:1011D0000068704710B50446406828B100F0F0FF81
:1011E000012801D1606810BD002010BD406808B51D
:1011F00028B100F0E5FFD0F1010038BF002008BDA4
:1012000010B50446406830B100F0DAFF18B96068E4
:1012100008B1043810BD002010BD00BF4068003088
:1012200018BF0120704700BF00F054B8A0F13C0087
:10123000FFF7FABF00F052B8A0F13C00FFF7FABF89
:1012400038B504461D4600F025F8294604F13C0057
:1012500000F0AAF8054B03F1080103F12002543312
:101260002160E2632364204638BD00BFC0830000D4
:1012700001EB410108B5CB000833C1184A6922B11E
:10128000C05808B10431904708BDC358002BFBD0AB
:10129000984708BD38B504460A4B0360251D002356
:1012A0004FF41650A06363602846A360E361236295
:1012B0006363FFF7EBFD284622460349FFF7AEFEC6
:1012C000204638BDB8830000711200000430FFF7DB
:1012D000B3BE00BF0430FFF7DFBE00BF10B504305F
:1012E0000C46FFF729FF204610BD00BF00207047C5
:1012F000F8B58E18B1420F4605460FD00C4601E0F6
:10130000A64209D02B6814F8011B5B6A284698474F
:101310000130F5D1E01BF8BDF01BF8BD0020F8BD91
:10132000F8B58E18B1420F4605460FD00C4603E0C3
:1013300004F8010BA64207D02B6828469B6A984701
:10134000431CF5D1E01BF8BDF01BF8BD0020F8BD33
:101350000020704700207047002070470020704731
:1013600010B5074B03F108023C33044680E80C003B
:10137000406901F00FF8204600F024FF204610BD20
:1013800020840000A0F10400FFF7EABF10B5044676
:10139000FFF7E6FF204600F059FF204610BD00BFD2
:1013A000A0F10400FFF7F2BF10B584B0044600F0CE
:1013B00039FF0B4B0B4903F1080000223C3384E852
:1013C0000900626101A8224602F04EFF064901A809
:1013D00001F0C8F96061FFF769FC204604B010BD58
:1013E00020840000308200006884000038B5044684
:1013F0000D46406901F084F828466169BDE838402F
:1014000001F0F0B910B50446406901F079F860695F
:10141000BDE81040FFF74EBC0EB430B582B005AB4E
:10142000044653F8045B4069019301F069F82946CA
:101430006069019A01F018FD02B0BDE8304003B0C8
:10144000704700BF4368416910B50446194400F075
:1014500067F8E36A2BB1A06910B104F11C01984749
:1014600010BDA369002BFBD0984710BD10B50446F2
:1014700000F05CF80023A361E36210BD38B50446B8
:101480000D4600F053F86561206900F06FF94119CD
:101490002046BDE8384000F043B800BF10B40C4609
:1014A00013460146224602485DF8044B00F042B85C
:1014B0008884000008B503689B68984708BD00BF92
:1014C00010B5044B03600446211D006900F02AF9A1
:1014D000204610BDC884000010B5064B03600446CA
:1014E000211D006900F01EF9204600F0AFFE2046E5
:1014F00010BD00BFC8840000074B10B50360002377
:1015000043608360C360044600F036F903492061FC
:1015100000F0B6F8204610BDC8840000B5140000E5
:1015200003460A460069191D00F0D8B8011D00697C
:1015300000F0F8B80FB400B5064B83B004AA1B68DE
:1015400052F8041BD868019201F08EFC012000F0D3
:10155000BBFE00BF0002FF1F38B50D46044600F079
:101560001FFC013509D02046002100F055FC204623
:101570000221BDE8384000F04BBC38BDF0B50C4648
:1015800087B0064600F00CFC01341DD037687B1C88
:101590001CD0124D0FCD01AC0FC42B6823603A1341
:1015A00006A901EB8203F9B253F8140C0022FFF7ED
:1015B00055FC3046012100F02FFC3046002107B0D9
:1015C000BDE8F04000F024BC07B0F0BD0448054978
:1015D0002022FFF763FF3768DBE700BFD8840000F5
:1015E0005C81000074810000431C10B5044618D0D3
:1015F0000B68581C04D10FE051F80C3F5A1C0BD05B
:101600009C42F9D12046896800F040FC2046002128
:10161000BDE8104000F082BC0248BDE81040FFF772
:1016200089BF10BDEC840000884208B50AD0431C75
:1016300007D0013106D00448FFF77CFF4FF0FF30A0
:1016400008BD084608BD00BF0085000008B5431C62
:101650000CD00B685A1C04D109E051F80C3F5A1CFD
:1016600005D09842F9D14868411C00D008BD034814
:10167000FFF760FF4FF0FF30F8E700BF1485000070
:1016800038B5036804461B680D46984763681D60BB
:1016900038BD00BF38B50368DB6804469847636807
:1016A0005B6883B122681D6853689847281A002830
:1016B00062680CDC50681168836853600029F0D0C0
:1016C00040688847EBE723689B68984738BD2368E4
:1016D00052681B691068984738BD00BF30B583B0A9
:1016E00072B645680A606C684B608CB12368D31A87
:1016F000002B05DA0CE01D68551B002D03DB1C4692
:10170000A368002BF7D1A1608B6062B603B030BD37
:10171000036869601B690191104698472346019947
:10172000F2E700BF08B572B643685A688A4211D022
:101730004AB193688B4208D02BB19A688A4205D08F
:101740001346002BF9D162B608BD13468A689A6029
:1017500062B608BD92685A60036822B110681B69BE
:10176000984762B608BD9B689847ECE708B50368E0
:101770005B68984708BD00BF004870476885000057
:101780000148FFF787BF00BF6885000038B50546F0
:1017900000F078FC044600F075FC001BA842FAD368
:1017A00038BD00BF4FF47A7303FB00F0FFF7EEBFC4
:1017B00010B50C4617284AD8DFE800F03939393916
:1017C0003939103D49411045161B2127492D330C4D
:1017D0000C0C0C0C00230B60184610BD4FF400439A
:1017E0000B600023184610BD4FF47A730B60002382
:1017F000F2E7194800F062F800232060ECE7164891
:1018000000F090F800232060E6E7134800F0D2F8DB
:1018100000232060E0E7104800F0FEF8002320607D
:10182000DAE70D4800F0E6F800232060D4E7BDE8D1
:10183000104000F017B8094B0B600023CCE7084BB1
:101840000B600023C8E701230B600023C4E74DF6BB
:1018500003130B600123BFE70040064080F0FA024B
:10186000006CDC0230B500EB4000114BC25C83B071
:10187000C4180D4662B16078FFF79AFFA8B9A17845
:101880000C4801AA00F002F938B1042003B030BDC1
:10189000094800F0C1F82860F1E7019A2B6801328D
:1018A000B3FBF2F32B6003B030BD012003B030BDB9
:1018B0001C880000007004400040064010B400F195
:1018C000047252010346127A22B14FF400405DF8CF
:1018D000044B7047027B12F0030219D0012A19D081
:1018E0000E4C022A18BF002419785A78C1F3C2019D
:1018F0000120884012F0300FB4FBF0F0E7D01B7BE2
:1019000003F00303012BE2D040095DF8044B70475C
:10191000034CE9E74FF40044E6E700BF006CDC024B
:1019200080F0FA0210B50446FFF7C8FF04F1047313
:1019300003335B011A7FE378C3F34113D2B2032B65
:1019400007D8DFE803F0130F0B0740F6713303FBF2
:1019500000F010BDD2B1012AF7D010BD92B1012A1A
:101960001DD010BD52B1012A14D010BD12B1012AF0
:101970001AD010BD00EB8000C00110BD00EB80004C
:10198000000210BDC0EB0010C00110BD00EB8000D4
:10199000400210BD4FF4B76303FB00F010BD40F6EA
:1019A000950303FB00F010BD4FF4377303FB00F009
:1019B00010BD00BF037B13F0030312D0012B12D024
:1019C0000A4A022B18BF00220379407903F01F0353
:1019D000013300F01F00B2FBF3F3183000FB03F0FB
:1019E0007047034AF0E74FF40042EDE7006CDC0279
:1019F00080F0FA0200F1047301335B011B7833B10C
:101A0000007A044BC0F3420023FA00F070474FF411
:101A10000040704700093D000278920907D100F1AB
:101A2000047305335B011B7E5BB9FFF77BBF027854
:101A30009209012A07D002789209022A10D00020C8
:101A40007047FFF7B7BF00F10472013252011278FC
:101A50008AB1007A0A4BC0F3420023FA00F07047C3
:101A6000037B13F0030309D0012B04D00548022B9C
:101A700018BF002070474FF400407047024870477D
:101A800000093D00006CDC0280F0FA020E2908B566
:101A900048D8002313600E2942D8DFE801F00D1565
:101AA0001E27303841414141414141410800012355
:101AB00013600023184608BD41F244010023415839
:101AC000090F1160184608BD41F244010023415836
:101AD000C1F303611160184608BD41F244010023BF
:101AE0004158C1F303511160184608BD41F2440149
:101AF00000234158C1F303411160184608BD0D4B46
:101B000003445901002309681160184608BD41F2D9
:101B1000480100234158C1F342011160184608BD35
:101B20000423C7E70448054A054B40F2B71100F00B
:101B30009BFB00BF4810100274850000E486000083
:101B40002086000010B400230424C0210122037069
:101B500044708370C37043718371C37103724372A5
:101B6000837243738373037443748174C3744275C3
:101B70005DF8044B704700BF120170B4B1FBF2F482
:101B8000A3B25E1EB6B241F6FE75AE4214D8057819
:101B900005F0E00545EA1323E4B203704470837A4C
:101BA0004901B1FBF2F202F01F0203F0E0031A4315
:101BB000827270BC00207047012070BC704700BF6B
:101BC0000379C171704700BF0379C3790B70704707
:101BD0000B0A032B1BD8DFE803F0140E0802807CED
:101BE000C9B2084100F001007047007BC9B208414A
:101BF00000F0010070474079C9B2084100F00100CF
:101C000070470079C9B2084100F001007047002018
:101C1000704700BF042919D013D940F20713994225
:101C20002BD0B1F5847F1FD3B1F5407F16D040F2A1
:101C30000133994210D1837C43F002038374002066
:101C40007047012902D001D3022903D10379C37956
:101C5000002070470329F9D003207047837C43F0AC
:101C60000103837400207047B1F5837FF4D1437979
:101C700043F04003437100207047437943F08003F1
:101C800043710020704700BF00F10470033042012F
:101C9000137B03F0FF000BB104207047012382F88F
:101CA000DC31704700B583B000230193052814D8B8
:101CB000DFE800F00B0B03030303032001A9FFF788
:101CC00077FD019803B05DF804FB01A90120FFF73F
:101CD0006FFD019803B05DF804FB0020F2E700BF40
:101CE000042909D8DFE801F0090F151B03000F4B89
:101CF00003445B0101225A6370470C4B03445B01B0
:101D000001225A627047094B03445B0101229A6227
:101D10007047064B03445B010122DA627047034BB4
:101D200003445B0101221A63704700BF38101002A0
:101D3000024B03445B010122DA6570473C1010023C
:101D4000052909D8DFE801F0090F151B2103124B03
:101D500003445B010122DA627047104B03445B01CC
:101D600001229A6270470D4B03445B010122DA6243
:101D700070470A4B03445B0101221A637047074B0B
:101D800003445B0101225A637047034B03445B0128
:101D900001229A62704700BF28101002341010020E
:101DA000F0B54B1C87B00C46016001D107B0F0BD07
:101DB000124EDFF858E00FCE01AD0FC52713336880
:101DC000DEF800002B603946FFF78AFF06ABE4B26D
:101DD00003EB87071F2C57F8143C09D853F824202D
:101DE00022F4E06242F4807243F8242007B0F0BD90
:101DF0000348044A044BE72100F036FA308800001B
:101E0000DC880000788900006C8900007085000083
:101E1000006800F083B800BFF0B50668731C87B097
:101E200004460F4617D00F4D0FCD01AC0FC42B68E1
:101E30002360F1B233130FB1012F0AD106AA02EBCE
:101E400083033A4653F8140C07B0BDE8F040FEF7A0
:101E5000E7BF07B0F0BD044804493122FFF71EFB7D
:101E60002668E0E7448800005C8100006C88000080
:101E700008B50348034A044B8D2100F0F5F900BF73
:101E8000DC880000A08900006C8900002DE9F04189
:101E9000431C86B00646884621D0194B194D0713BE
:101EA00039461868FFF71CFF0FCD01AC0FC406AB15
:101EB00003EB8707F6B22B6823601F2E57F8143CFC
:101EC00017D853F826104FEA082221F4E06102F4F3
:101ED000E0620A4343F8262006B0BDE8F0810A48D4
:101EE0000A491722FFF7DAFA054B31461868FFF75F
:101EF000F7FE0748074A084BE72100F0B5F900BF95
:101F0000708500008C89000058880000B4890000AA
:101F1000DC880000248A00006C890000F0B5431CB6
:101F200087B006460F4640D0244D0FCD01AC0FC4FC
:101F3000012F2B6823604FEA2633F6B224D012D348
:101F4000022F0ED106AA02EB83031F2E53F8143C76
:101F500031D803EB860606F104767601012373601F
:101F6000336007B0F0BD06AA02EB83031F2E53F8BF
:101F7000143C20D803EB860606F104767601002394
:101F80007360336007B0F0BD06AA02EB83031F2E17
:101F900053F8143C0FD803EB860606F1047676015D
:101FA00000237760336007B0F0BD054805491E2265
:101FB000FFF774FAB8E7FFF75BFF00BF8C890000FA
:101FC00058880000B48900002DE9F047204B1C68B8
:101FD00082B014B102B0BDE8F0871E4A1E4E1068F0
:101FE000DFF894801D4F012521461D60FFF7A0FEFC
:101FF0001B4B01A91C600320FFF7DAFB019A194B68
:10200000DFF878C0DFF878E01748184C1849A3FBD0
:1020100002A94FEA994909F1FF394FF0FF32C8F898
:102020000090CCF80020CEF800503D603560019A59
:10203000A3FB02639B0C013B036033202560FEF78A
:1020400069FC0C4B4FF400225A6002B0BDE8F087E7
:10205000E804FF1F7085000000236E4200216E42DD
:1020600004006E4283DE1B432071034008276E424A
:102070008117000000E100E000710340107103408F
:1020800008236E4208B5044B1B680BB9FFF79CFF91
:10209000024B1868C04308BDE804FF1F14710340D9
:1020A000014B00221A60704704276E42014B012247
:1020B0001A6070473C71034070B50446FFF7E2FFB9
:1020C000201A00280CDD0849084A094E094D002451
:1020D0000C600123146030602B600B60136070BDD6
:1020E000BDE87040FFF74CBB00276E4200256E42F2
:1020F0003071034004276E428368094A026053B17D
:10210000084B1A68824201D106E01A46536883429E
:10211000FBD143685360704742681A60704700BF44
:10212000408A0000EC04FF1F83680C4A10B5044687
:10213000026053B10A4B1A68904201D10AE01A4674
:1021400053689C42FBD163685360204600F07EF8E0
:10215000204610BD42681A60F7E700BF408A0000C1
:10216000EC04FF1F054B0273002281600360426094
:1021700019B1034B1A68426018607047408A00002A
:10218000EC04FF1F0D4B70B51C6806460D4614B9D4
:1021900012E0646884B1A36831462A461846002BD1
:1021A000F7D002F006F90028F3D1A06802F0F9F8A0
:1021B000A842EED1204670BD002070BDEC04FF1F88
:1021C000007B704710B5074B044603F10802343317
:1021D000226040F8043FFFF78FFF2046FEF7DCFB4C
:1021E000204610BD488A0000A0F10400FFF7EABFB6
:1021F000094B10B5044603F108023433226040F85D
:10220000043FFFF779FF2046FEF7C6FB204600F0AB
:102210001DF8204610BD00BF488A0000A0F1040050
:10222000FFF7E6BF10B5074B0446002240F8043B19
:10223000FFF798FF044B03F10802343384E80C00E5
:10224000204610BD08820000488A000000F018BC3B
:1022500003460846194600F023B808B5062001F0E9
:10226000E7FF0120FEF710FD1FB50546084800688E
:10227000C06812B9074C224600E0074C02928DE874
:1022800012001A4605492B4600F076FAFFF7E5FFE3
:102290000002FF1F44810000888A0000958A000028
:1022A00038B5054604480C46134620B1022029469D
:1022B0002246AFF3008038BD00000000014B1868D3
:1022C000704700BF0002FF1F08B5074B044613B15B
:1022D0000021AFF30080054B1868836A03B198476B
:1022E0002046FEF7D1FC00BF00000000288B000054
:1022F00070B505460C4609B9002070BD18B1836958
:102300000BB900F083F9204B9C4201D16C6808E0C6
:102310001E4B9C4201D1AC6803E01D4B9C4208BFA0
:10232000EC68B4F90C30002BE6D02846214600F0CA
:1023300039F8236B064633B12846216A98470028AE
:10234000B8BF4FF0FF36A3891B0603D52846216985
:1023500000F0C0FB616B41B104F14403994202D02B
:10236000284600F0B7FB00236363A16C21B1284627
:1023700000F0B0FB0023A36400F0B2F90023A381B6
:1023800000F0AFF9304670BDC48A0000E48A000056
:10239000048B0000024B01461868FFF7A9BF00BF7D
:1023A0000002FF1F8A892DE9F041054610070C46FF
:1023B00057D44B68002B02DC0B6C002B18DDE66A4F
:1023C000B6B102F48052002392B22F682B600AB19A
:1023D000626D10E0216A28460123B047411C024685
:1023E00009D12B683BB11D2B01D0162B47D12F6093
:1023F0000020BDE8F081A3895B0705D56368D21A88
:10240000636B0BB1236CD21AE66A216A002328465B
:10241000B047461CA38905D12A681AB11D2A01D0EC
:10242000162A19D100226260D9042269226004D5DB
:10243000421C01D12B6803B96065616B2F600029D4
:10244000D6D004F14403994202D0284600F042FB62
:1024500000206063BDE8F08143F04003A381BDE844
:10246000F0810F69002FC3D093070E6808BF4B6936
:102470000F6018BF0023C7EB06088B6012E0A3892A
:1024800043F04003A3814FF0FF30BDE8F0812846C0
:10249000216AA66A3A464346B0470028EFDD074462
:1024A000C0EB0808B8F1000FF1DCA1E738B50B6903
:1024B00005460C46DBB118B183690BB900F0A6F8EC
:1024C0000C4B9C4201D16C6808E00B4B9C4201D143
:1024D000AC6803E0094B9C4208BFEC68B4F90C30CF
:1024E0002BB128462146BDE83840FFF75BBF0020EE
:1024F00038BD00BFC48A0000E48A0000048B0000DD
:10250000014620B9044B0549186800F01FBA044B76
:102510001868FFF7CBBF00BF288B0000AD24000078
:102520000002FF1F38B50C46054618B183690BB988
:1025300000F06CF80E4B9C4201D16C6808E00D4B2A
:102540009C4201D1AC6803E00B4B9C4208BFEC6895
:102550006368013B002B636005DA28462146BDE82D
:10256000384001F011BD23685A1C2260187838BD2C
:10257000C48A0000E48A0000048B0000024B01467C
:102580001868FFF7CFBF00BF0002FF1F014900F02E
:10259000DDB900BFAD240000002310B50446036080
:1025A0004360836081814366C281036143618361CB
:1025B00019465C30082200F085FA054B6362054B32
:1025C000A362054BE362054B2462236310BD00BF89
:1025D000054300002B4300006343000087430000D5
:1025E00070B568234D1E5D430E4605F1740100F081
:1025F000B5FA044640B1002180E842000C30A060EA
:1026000005F1680200F05EFA204670BD836910B5DE
:10261000044633BB8364C3640365124B124A1B68D0
:102620008262984204BF0123836100F01FF860605A
:10263000204600F01BF8A060204600F017F80421A7
:10264000E06000226068FFF7A7FFA068092101226F
:10265000FFF7A2FFE06812210222FFF79DFF01238E
:10266000A36110BD288B00008D250000F8B51B4B21
:102670001E68B369074613B93046FFF7C7FF4836EF
:10268000B4687368013B04D4B4F90C5075B1683474
:10269000F8E733682BB938460421FFF7A1FF306013
:1026A00008B13668ECE70C233B60F8BD4FF6FF73CA
:1026B000E3810123A38165662560A56065602561CE
:1026C0006561A56104F15C002946082200F0FAF971
:1026D0006563A563A564E5642046F8BD288B00000A
:1026E00070477047F7B50F46114601AA054603F03B
:1026F00033FD064608B9002029E02846FFF7B6FF5B
:1027000004460028F7D028463946019A4FF4DB7377
:1027100001F05CFB002806DA0025FFF7E1FFA58148
:10272000FFF7DFFFE7E70B4B63620B4BA3620B4B3B
:10273000E3620B4B2363F305E081A681246205D598
:10274000284621460022022300F056F8204603B016
:10275000F0BD00BF054300002B43000063430000B1
:10276000874300000A460349034608681946FFF7F5
:10277000B9BF00BF0002FF1F0EB403B5014603AB93
:10278000054853F8042B0068019300F065FA02B085
:102790005DF804EB03B070470002FF1F70B50E46F2
:1027A0001446054618B183690BB9FFF72FFF0A4B92
:1027B0009C4201D16C6808E0084B9C4201D1AC6896
:1027C00003E0074B9C4208BFEC682846314622468E
:1027D000BDE8704001F00CBBC48A0000E48A000030
:1027E000048B00000A460349034608681946FFF7B0
:1027F000D5BF00BF0002FF1F00F000B82DE9F8436D
:102800000C4690461E46054618B183690BB9FFF782
:10281000FDFE3D4B9C4201D16C6808E03B4B9C4265
:1028200001D1AC6803E03A4B9C4208BFEC68A38935
:1028300003F48473B3F5847F03D128462146FFF760
:1028400035FEE76A0FB91D232BE0012E04D0022EBE
:102850002BD056B3162324E028462146FFF726FE48
:10286000A28902F4805292B20AB1606D05E0216A39
:1028700028463346B847411C14D0A3895A0706D5C9
:102880006368C01A636B4BB1236CC01A06E01B0768
:1028900004D5236813B122699B1A1844804400268A
:1028A00003E02B604FF0FF392BE023691BB928466A
:1028B000214600F08FF828462146FFF7F7FD8146B4
:1028C0000028EFD12846216A42463346B8470130F6
:1028D000E8D0616B41B104F14403994202D028462B
:1028E00000F0F8F80023636323692360A3890021C3
:1028F00023F402636160A38104F15C00082200F00C
:10290000E1F84846BDE8F883C48A0000E48A000084
:10291000048B00002DE9F041884600F148040026B0
:102920008CB1A5686768013F0BD4AB89012B06D930
:10293000B5F90E30013302D02846C047064368354A
:10294000F1E72468ECE73046BDE8F0812DE9F84373
:102950008046894600F14804002694B1A56867685E
:10296000013F0CD4AB89012B07D9B5F90E300133E7
:1029700003D040462946C84706436835F0E7246837
:10298000EBE73046BDE8F88370B50E4B0E4CE41A09
:10299000A41000251E46A54204D056F825309847BD
:1029A0000135F8E705F0A4FB084C094BE41AA41024
:1029B00000251E46A54204D056F82530984701351B
:1029C000F8E770BD4002FF1F4002FF1F4802FF1FD3
:1029D0004002FF1FF0B58B899D0791B006460C465B
:1029E00026D4B1F90E10002909DAA38913F0800F5B
:1029F0004FF0000514BF40274FF480670DE001AA97
:102A000003F0E2FB0028F0DB029D05F47045A5F51C
:102A100000514D424D414FF480673046394600F039
:102A20009DF860B9A3899A051DD443F00203A381E0
:102A300004F14703236023610123636113E00B4B1F
:102A4000B362A389206043F08003A38120616761A2
:102A50004DB13046B4F90E1003F0D4FE18B1A3897D
:102A600043F00103A38111B0F0BD00BF8D2500002C
:102A7000024B0146186800F071B800BF0002FF1F4A
:102A8000024B0146186800F025B800BF0002FF1F86
:102A900010B5C9B202449042034606D01C788C425D
:102AA00000F10100F7D1184610BD002010BD10B58F
:102AB000431E0A44914204D011F8014B03F8014F20
:102AC000F8E710BD02440346934202D003F8011B0D
:102AD000FAE7704730B500293DD051F8042C0B1FA0
:102AE0001D49002AB8BF9B180A680C4612B95A60E3
:102AF0000B6030BD93420DD219685818904201BF47
:102B00005A5852181A6042685A60236030BD994280
:102B100003D80A4651680029F9D1146815199D4255
:102B20000AD11B682344D0188842136013D1086867
:102B3000034413604B680DE002D90C23036030BDE1
:102B40001C681819884204BF08684968596004BFA6
:102B500000191860536030BDF404FF1F70B5CC1C21
:102B600024F0030408340C2C38BF0C24002C064637
:102B700003DA0C233360002070BD8C42F9D3204A65
:102B8000136810461946A1B10A68121B0ED40B2A0D
:102B900003D90A608B188C501FE08B420DBF5A6816
:102BA0004A685A60026018BF0B4616E00B46496837
:102BB000E9E7144D2B681BB9304601F03BFA286059
:102BC0003046214601F036FA421C0346D1D0C51CDE
:102BD00025F0030585420AD11C6003F10B001A1D84
:102BE00020F00700821A0AD05142995070BD304639
:102BF000E91A01F01FFA0130BBD02B46ECE770BD9B
:102C0000F404FF1FF004FF1F9368013B002B10B575
:102C1000936009DA9469A34202DBCBB20A2B03D199
:102C2000BDE8104002F064BB1368581C10601970B6
:102C3000C8B210BDF8B506460F461446D518AC42CA
:102C400008D0304614F8011B3A46FFF7DDFF431C5D
:102C5000F5D100E00020F8BD2DE9F0439DB00D4610
:102C600090460393064618B183690BB9FFF7CEFC73
:102C7000754B9D4201D1756808E0744B9D4201D1AE
:102C8000B56803E0724B9D4208BFF568AB891C072D
:102C90000AD52B6943B10023099320238DF82930ED
:102CA00030238DF82A3041E03046294602F086FB79
:102CB0000028F0D04FF0FF30C2E0039A111D1268D7
:102CC0000391002ABBBF524243F0020307920792CE
:102CD000B8BF0493013423782E2B7BD0DFF880819A
:102CE000217840460322FFF7D3FE38B1049AC8EB9F
:102CF0000000402383401343049301342178554856
:102D00008DF82810062204F10108FFF7C1FE002803
:102D100000F08580504B002B78D1039B073323F0C4
:102D2000070308330393099B3B44099343461C461E
:102D300013F8012B1AB9B4EB08090ED002E0252ACA
:102D4000F5D1F8E73046294642464B46FFF772FF79
:102D5000013070D0099B4B4409932378002B6AD033
:102D600000234FF0FF3204930793059206938DF8EA
:102D700053301A9304F101084446DFF8E8902178B3
:102D800048460522FFF784FE08F10108049B30B194
:102D9000C9EB00000122824013430493ECE7D806FC
:102DA00044BF20228DF85320190744BF2B228DF8F1
:102DB000532022782A2A80D0079923461C460133C3
:102DC0002278303A092A03D80A2000FB0121F5E7CE
:102DD000079180E763782A2B0AD1039B1A1D1B6891
:102DE0000392002BB8BF4FF0FF330234059375E711
:102DF000611C00220C4601312378303B092B03D89B
:102E00000A2000FB0232F5E7059267E703AB009367
:102E1000304604A92A46114B00F0C4F807E003AB82
:102E20000093304604A92A460C4B00F077FB421C65
:102E300007467FF478AFAB895B063FF53BAF099857
:102E40001DB0BDE8F08300BFC48A0000E48A000022
:102E5000048B0000368B0000A52F0000352C0000ED
:102E6000328B00002C8B000030B51346044A054617
:102E70000C46106829462246BDE83040FFF7ECBEFC
:102E80000002FF1F2DE9F04788B0002B149F129914
:102E9000109EDDF84CA01D46B8BF05F1004327F099
:102EA0002007B6BF1D4600232D231446B8BF144685
:102EB000462F0B7003D0452F03D1013601E00323C9
:102EC00000E002238DE8480406AB039307AB0493AC
:102ED00022462B4602F07CFB472F804602D1119BF5
:102EE000DB0726D5462F08EB060911D198F80030EC
:102EF000302B0AD1204629460022002305F01EF877
:102F000018B9C6F10106CAF80060DAF80030994431
:102F1000204629460022002305F010F808B1CDF81C
:102F20001C90079B4B4504D25A1C079230221A7002
:102F3000F7E7079B159AC8EB03034046136008B0F8
:102F4000BDE8F08773B503460029B8BF494203F8CE
:102F5000022BB4BF2D222B220929427019DD0DF15D
:102F6000070426460A2291FBF2F502FB15113031C7
:102F7000092D04F8011D2946F4DC3031651E04F8E2
:102F8000011CB5421A460AD215F8012B03F8012B91
:102F9000F7E730241A46214402F8024B5970101A00
:102FA00002B070BD2DE9F04F91B08B4615461E461C
:102FB0001A9F044603F036FCD0F800A0504601F0FA
:102FC000F0F900230E933B680990073323F00703C1
:102FD00003F108029BF818803A60D3E90023CBE99B
:102FE0001223DBE9120100F0FBFF0128DBE91201EB
:102FF00019D10022002304F0ABFF10B12D238BF870
:103000004330A04BA04FB8F1470F88BF1F460323A2
:10301000CBF81030DBF8003023F00403CBF800309D
:103020004FF00009A1E000F0DBFFDBF8003048B909
:10303000964A974FB8F1470F88BF17460322CBF83F
:103040001020E9E7DBF804209BED127B571C8DED87
:103050000A7B01D1062209E0B8F1670F02D0B8F16E
:10306000470F05D1002A40F0C7810122CBF8042088
:10307000DBF80420CDF8108043F480638DE80C0069
:10308000CBF800300DF1330302930DAB03930EAB7D
:103090000593002306932046DDE90A23FFF7F2FE9D
:1030A00008F0DF03472B07460AD10D9BD81C03DB32
:1030B000DBF80420934237DDA8F102085FFA88F8B4
:1030C000B8F1650F0D9915D8013942460BF1500042
:1030D0000D91FFF737FF0E9A8318012A8146CBF82E
:1030E000103003DCDBF80020D10738D50133CBF8F2
:1030F000103034E0B8F1660F18D10029DBF8043045
:1031000009DDCBF810101BB9DBF80020D20721D560
:1031100001330B441CE01BB9DBF80020D00701D5BC
:10312000023315E0012313E04FF067080D9B0E9A60
:10313000934207DBDBF80020CBF81030D10709D52C
:10314000013305E0002BD4BFC3F102030123134474
:10315000CBF810300D9BCBF858304FF000099DF89C
:10316000333013B12D238BF8433000962046594657
:103170000FAA2B4600F05CF9013002D14FF0FF306E
:1031800052E1DBF800305A0505D4204629463A467C
:10319000DBF8103008E1B8F1650F40F2D080DBE9D0
:1031A00012010022002304F0C9FE50B32046294634
:1031B000384A0123B0470130E0D00E9B0D9A9A4265
:1031C00009DBDBF80030D80705D4DBF800309F07B7
:1031D00000F1108107E1204629465246099BB0477D
:1031E0000130CBD000270E9B013B9F42EDDA2046F9
:1031F00029460BF11A020123B0470130BED0013736
:10320000F1E70D9B002B29DC20462946214A0123AA
:10321000B0470130B2D00D9B2BB90E9B1BB9DBF828
:103220000030D907D1D5204629465246099BB047E0
:103230000130A3D04FF000080D9B5B42984520461B
:10324000294608DA0BF11A020123B047013095D064
:1032500008F10108F0E73A460E9BA5E0DBF858209C
:103260000E9B9A42A8BF1A46002A914602DC4FF0F4
:1032700000081CE0204629463A464B46B04701303C
:10328000F5D17BE7418B00003D8B0000498B0000AE
:10329000458B0000968B0000204629460BF11A0250
:1032A0000123B04701303FF469AF08F10108DBF8B2
:1032B0005830B9F1000FACBFC9EB03021A46904574
:1032C000EADB07EB03080D9A0E9B9A4210DBDBF852
:1032D0000030DA070CD40E9A1744C8EB07030D9F91
:1032E000D21B9342A8BF1346002B1F4608DC0EE0FA
:1032F000204629465246099BB0470130EBD13DE7B5
:10330000204629464246B04701303FF437AF4FF0E0
:1033100000080AE0204629460BF11A020123B047B3
:1033200001303FF42BAF08F101080D9A0E9B002FDE
:10333000A3EB0203A8BFDB1B9845EBDB45E70E9A26
:10334000012A01DCDB0736D5204629463A4601230F
:10335000B04701303FF412AF204629465246099B40
:10336000B04701303FF40AAFDBE91201002200232D
:1033700004F0E4FDE8B90E9B204629467A1C013B87
:103380001DE0204629460BF11A020123B047013007
:103390003FF4F4AE01370E9B013B9F42F1DB204628
:1033A00029460BF150024B46B04701307FF40DAF78
:1033B000E4E60027EFE7204629463A460123B047D6
:1033C0000130ECD1DAE6204629460BF1190201233F
:1033D000B04701303FF4D2AE0137DBF80C300F9A22
:1033E0009B1A9F42EFDBDBF80C000F9B9842B8BFA3
:1033F000184619E00027F0E743F480638DE80C00DD
:10340000CBF800300DF1330302930DAB03930EABF9
:10341000059300230693CDF810802046DDE90A23AA
:10342000FFF730FD074640E611B0BDE8F08F00BF62
:103430002DE9F84391461F468A680B69DDF8208024
:103440009342B8BF1346C9F8003091F843200646AE
:103450000C4612B10133C9F800302368990642BF07
:10346000D9F800300233C9F80030256815F0060598
:103470001CD094F843302268003318BF0123920611
:103480001FD5E1185A1C302081F84300224494F8DB
:10349000451082F84310023313E03046394604F1F8
:1034A00019020123C047013007D00135E368D9F87C
:1034B00000209B1A9D42F0DBDBE74FF0FF30BDE8B8
:1034C000F8833046394604F14302C0470130F4D056
:1034D0002268D9F80050E36802F00602042A08BF07
:1034E0005D1B2269A3680CBF25EAE57500259342A0
:1034F000C4BF9B1AED184FF00009A9450ADA3046FF
:10350000394604F11A020123C0470130D5D009F130
:103510000109F2E70020BDE8F88300002DE9FF4132
:103520000C461746227E6E2A984606460A9B01F1F3
:10353000430100F0AF8012D8632A23D00AD8002AB2
:1035400000F0BC80582A40F0CB8084F84520DFF89A
:1035500004E257E0642A1ED0692A1CD0C0E0732A16
:1035600000F0B08009D86F2A2ED0702A40F0B880C1
:10357000226842F0200222603FE0752A24D0782A97
:103580003BD0ADE01A68111D1960136884F8423011
:1035900004F14205A8E020681A6810F0800F02D0FC
:1035A000101D186008E010F0400F02F104001860D0
:1035B00002D0B2F9003000E01368002B3EDA2D2271
:1035C0005B4284F8432039E020681A6810F0800FCD
:1035D00002D0101D186007E010F0400F02F1040047
:1035E000186001D0138800E01368227EDFF864E1E0
:1035F0006F2A0CBF08220A221CE07822DFF858E16B
:1036000084F845202268186812F0800F00F1040544
:103610001D6003D1550601D5038800E00368D0077B
:1036200044BF42F0200222601BB9226822F020022F
:1036300022601022002084F8430002E0DFF814E149
:103640000A226568A560002DA2BF206820F0040052
:10365000206003B965B10D46B3FBF2F002FB1033F5
:103660001EF8033005F8013D03460028F4D100E0C0
:103670000D46082A0BD12368DA0708D5236962684A
:103680009A42DEBF302305F8013C05F1FF35491BA6
:1036900021612EE025681A68606915F0800F03D05B
:1036A000151D1D60136808E015F0400F02F10405B8
:1036B0001D60136801D0188000E0186000232361AA
:1036C0000D4616E01A68111D1960156862682846D3
:1036D0000021FFF7DDF908B1401B6060636804E07A
:1036E00004F1420584F8422001232361002384F879
:1036F0004330CDF800803046214603AA3B46FFF711
:1037000097FE013002D14FF0FF301FE030463946BE
:103710002A462369C0470130F5D023689B0705D4AA
:10372000E068039B9842B8BF18460FE00025E368A5
:10373000039A9B1A9D42F3DA3046394604F1190286
:103740000123C0470130DED00135F0E704B0BDE809
:10375000F08100BF4D8B00005E8B00002DE9F04F23
:1037600099468B6815465A1EB2F5AE7F81BF6FF43D
:10377000AE7203EB020C40F25D138B600B680F46D8
:1037800043F4F06387B047F81C3B4FF0000B06464C
:103790000C4698BF4FF0000CB8465A46CDF80CB016
:1037A000CDF808B0DA46CDF804B0A168002900F0E1
:1037B000EC802B681B78492B70D016D8392B0DD88C
:1037C000312B40D22D2B46D002D82B2B43D0DCE01E
:1037D0002E2B00F09280302B23D0D6E0452B00F02A
:1037E0009580462B77D0412B0CE0652B00F08E8026
:1037F0000AD8542B75D002D84E2B34D0C5E0592BA3
:1038000075D0612B46D0C0E06E2B2CD004D8662B2F
:1038100061D0692B42D0B8E0742B62D0792B66D08E
:10382000B3E0206810F4807F0DD020F0800020608D
:103830000AF1010ABCF1000F00F08A8001310CF19D
:10384000FF3CA16084E012EB0B0F40F09E802168EA
:1038500021F4C07105E02168080640F1968021F04E
:103860008001216070E06AB9BAF1000F0CD12168C3
:1038700001F4E060B0F5E06F06D121F4F061216061
:10388000012261E0022A5ED0BBF1010F1ED0BBF124
:10389000040F1AE0012A78D1022255E0BBF1000F93
:1038A0000ED1BAF1000F73D1216801F4E060B0F5D8
:1038B000E06F71D121F4F06121604FF0010B43E022
:1038C000BBF1030F02D0BBF1050F5ED10BF1010B71
:1038D0005FFA8BFB38E0BBF1020F56D14FF0030BC0
:1038E00032E0BBF1060F50D14FF0070B2CE0BBF1DB
:1038F000070F4AD14FF0080B26E02168880544D510
:1039000021F420712160CDF804A01DE0216801F4AC
:10391000A060B0F5806F04D0480536D5BAF1000F2D
:103920003AD088055CBF0198CDF80C8021F4F06195
:1039300058BFC0EB0A0041F4C07158BF029021602B
:103940004FF0000A00E0032288F8003008F1010877
:10395000A368013BA3602369013323616B68013BCA
:10396000002B6B6003DD2B6801332B601DE7D4F85F
:103970008031059230462946CDF810C09847DDF8D1
:1039800010C0059A00283FF410AFBAF1000F03D021
:10399000236823F480732360013A012A0ED8B845C6
:1039A0000AD9D4F87C3118F8011D30462A469847C8
:1039B0002369013B2361F2E70125AEE00BF1FF3300
:1039C000062B22D8BBF1020F12D9ABF1030B5FFA21
:1039D0008BFBCBEB080BD84517D0D4F87C3118F80B
:1039E000011D30462A4698472369013B2361F2E7CF
:1039F000B845E1D9D4F87C3118F8011D30462A4683
:103A000098472369013B2361F2E72368DA052CD547
:103A10005B050CD5B845CFD9D4F87C3118F8011D19
:103A200030462A4698472369013B2361F2E718F89C
:103A3000011C2369652903F1FF3308F1FF3B236172
:103A40000DD045290BD0D4F87C3130462A46984712
:103A5000236918F8021C013BA8F1020B2361D4F87A
:103A60007C3130462A469847D846256815F010051F
:103A700052D188F80050236803F4C063B3F5806F17
:103A800005D1019BC3EB0A035A426BB916E0029BB6
:103A9000A3B1039B2A46591C30460A2301F0EAFAD7
:103AA000029BDDF80C80C21A04F26F13984528BF00
:103AB00004F5B77840461B4900F0D6FB304639463E
:103AC000002200F0C5FC2268D9F8003012F0020F85
:103AD00006460F4603D01A1DC9F8002006E012F072
:103AE000040F03F10402C9F8002003D01B68C3E9E6
:103AF00000670DE0D3F8008000F072FA10B900F012
:103B00006BFB03E03046394604F092FAC8F8000037
:103B1000E3680133E36000E00025284607B0BDE814
:103B2000F08F00BF6F8B00002DE9F04115468A68C9
:103B300080460C4632B98A69002A0CBF01224FF038
:103B4000FF328A602268D1065FBF1A68111D1960B2
:103B500017680026A06900BB2368DA065EBF2B68E1
:103B60001B783B702A686B6802F101022A60A26828
:103B700003F1FF3302F1FF326B6006F1010658BF1B
:103B80000137A260EAB1002BE4DCD4F88031404672
:103B9000294698470028DDD013E0012807D12B687B
:103BA00062691B78D35C002BD6D1C6B109E002282C
:103BB00007D12B680B4A1B78126813445B781B07EC
:103BC000CAD5236813F0100305D1E2680132E26020
:103BD000A26902B13B7023691E4426610020BDE842
:103BE000F08100BF0402FF1F2DE9F04F9A46734B8E
:103BF0000C468346164693E8070087B003AB83E87C
:103C000007006F4BA1696F4A032918BF1A46A368C2
:103C100000925A1EB2F5AE7F81BF6FF4AE7503EB12
:103C2000050840F25D13A360236804F11C0943F406
:103C30005063236098BF4FF000084F46002332685E
:103C4000019303A951F8230011780222FEF720FF07
:103C5000019B002836D0012B0BD162682AB90822BB
:103C60006260226842F400722260226822F4A0623C
:103C70000BE0022B0AD1226802F4C061B1F5007F8B
:103C800020D11021616042F480722260A268511E2E
:103C9000A160BAB13268511C316012783A70726812
:103CA000013A002A07F1010572600ADCD4F880218C
:103CB0000193584631469047002840D12F46019B3A
:103CC00000E02F460133032BB9D163680BB90A23F7
:103CD000636063683C496069C91A00F0BBF93D46FE
:103CE0000027A36863B3316860690A78805C38B3E1
:103CF000302A22680AD1100508D50137B8F1000F23
:103D00000AD0013308F1FF38A36005E022F4106205
:103D100022600B782B7001357368013B002B7360B8
:103D200003DD33680133336005E0D4F88031584651
:103D30003146984720B9A368013BA360D1E700272B
:103D40002368D9050DD54D4509D915F8011CD4F8BE
:103D50007C3158463246984705F1FF3845464D4577
:103D600027D0226812F010021BD12A706368009ECF
:103D700058464946B0472268DAF8003012F0200F62
:103D800007D1D20705D51A1DCAF800201B68188074
:103D900004E01A1DCAF800201B681860E3680133AC
:103DA000E360C9EB05053D4427693D4425610020DA
:103DB00000E0012007B0BDE8F08F00BF748B000069
:103DC0008151000075500000908B000038B5074C01
:103DD000054600202060084611461A46FCF716FEEC
:103DE000431C02D1236803B12B6038BDFC04FF1FC4
:103DF00070B50E461446054618B183690BB9FEF737
:103E000005FC164B9C4201D16C6808E0144B9C42A7
:103E100001D1AC6803E0134B9C4208BFEC68A36877
:103E2000013B002BA36011DAA269934207DB2368F0
:103E30001E70236819780A290BD1284601E028460C
:103E400031462246BDE8704001F052BA23681E7028
:103E500023685A1C2260187870BD00BFC48A000015
:103E6000E48A0000048B0000838903F00903092B16
:103E700001D1FEF745BB002070470000F8B50C46A5
:103E8000054618B183690BB9FEF7C0FB394B9C425C
:103E900001D16C6808E0384B9C4201D1AC6803E06A
:103EA000364B9C4208BFEC68A2890023636093B242
:103EB0009E065AD458071AD4D90605D4092342F0CD
:103EC00040022B60A28150E01A070BD528462146FC
:103ED000FEF7ECFA002848D1A389A06023F008037C
:103EE000A381A061A38943F00403A38110E0616B67
:103EF00071B104F14403994202D02846FEF7EAFD6D
:103F0000236C63600020606313B1E36B2360F8BD32
:103F100023691BB928462146FEF75CFDA789BEB27E
:103F2000B3070FD00123A381154B1649186806F07B
:103F30000906FEF7EFFC092EA78103D1284621468A
:103F4000FEF730FA22692260666A216A63692846B0
:103F5000B047002860600BDCA38917BF002243F044
:103F6000200343F040036260A3814FF0FF30F8BDAF
:103F70000020F8BDC48A0000E48A0000048B000021
:103F8000288B0000693E000038B50C46054618B184
:103F900083690BB9FEF73AFB0E4B9C4201D16C686A
:103FA00008E00D4B9C4201D1AC6803E00B4B9C42F6
:103FB00008BFEC6828462146FFF760FF38B9636800
:103FC000013B636023685A1C2260187838BD4FF0AB
:103FD000FF3038BDC48A0000E48A0000048B000072
:103FE0000A4631F0004110B503461BD00F48A2F538
:103FF0008014844210D902F1FF420C4802F5E0021D
:10400000824209D9B1F5801F08D3094A914207D1EC
:10401000B3FA83F0400910BD042010BD032010BD89
:10402000002010BD0028E6D1022010BDFFFFDF7F79
:104030000000F07F38B5064C002305460846236093
:10404000FCF70EFE431C02D1236803B12B6038BD80
:10405000FC04FF1FF0B50A785E2A13BF4B1C8B1CB3
:104060004A78002108BF0121441E00F1FF0504F831
:10407000011FAC42FBD10AB9581EF0BDC1F10104C9
:10408000E7B2875419782D2903F1010605D05D297F
:104090000ED079B10A463346F2E75D785D2DF9D04E
:1040A0009542F7DB02330132AA428754FBDBE9E792
:1040B0003046F0BD1846F0BD00290CBF0222002298
:1040C0004FF4806300F000B82DE9F0411D463D4BF0
:1040D0001E6804460F46904626B1B36913B93046B0
:1040E000FEF794FA384B9C4201D1746808E0374BD4
:1040F0009C4201D1B46803E0354B9C4208BFF46890
:10410000B8F1020F5AD8002D58DB30462146FEF791
:10411000CDF900236360A361A3891B0603D5304654
:104120002169FEF7D7FCA389B8F1020F23F08303BE
:10413000A38112D037BB002D08BF4FF480652846FD
:10414000FEF796FC0746C8B94FF48060FEF790FC76
:10415000074688B94FF0FF3000E00020A38943F004
:104160000203A3810023A36004F1470323602361BA
:1041700001236361BDE8F0814FF48065A38943F0BA
:104180008003A381B8F1010F01BFA38943F00103AC
:10419000A3816B4208BFA3610E4BB362A389276062
:1041A00003F0080080B22761656148B113F0030F86
:1041B00018BF0025A5600020BDE8F0814FF0FF305A
:1041C000BDE8F0810002FF1FC48A0000E48A0000FD
:1041D000048B00008D250000004870470000C07F60
:1041E0001F2938B504460D4604D9162303604FF045
:1041F000FF3038BD426C12B152F821304BB9204625
:1042000000F030F82A4601462046BDE8384000F06C
:1042100017B8012B0AD0591C03D1162303600120C3
:1042200038BD002442F8254028469847002038BD74
:10423000024B01461868FFF7D3BF00BF0002FF1F03
:1042400038B5074C0023054608461146236003F0A5
:1042500047FF431C02D1236803B12B6038BD00BF68
:10426000FC04FF1F03F034BF0EB400B59CB04FF444
:104270000271ADF814106FF00041049107914FF6F0
:10428000FF711DABADF81610084953F8042B0290CE
:1042900006900868019302A902F07AFF029B0022AF
:1042A0001A701CB05DF804EB03B070470002FF1FEA
:1042B0000EB430B59CB01FAC4FF4017254F8045BDF
:1042C000ADF814200290069000F06BF80B4B0B93A6
:1042D00000230F9314934FF6FF73ADF81630084B7D
:1042E0000390079002A9186801942A46234603F018
:1042F0009BF81CB0BDE8304003B070472743000076
:104300000002FF1F10B50C46B1F90E1003F0DAF9E8
:104310000028ABBF636DA3891B1823F48053ACBF87
:104320006365A38110BD002070472DE9F0411D4653
:104330008B89DB0507460C46164605D5B1F90E10EC
:104340000022022302F072FAA389B4F90E1023F4BA
:104350008053A381384632462B46BDE8F04101F038
:104360001BB810B50C46B1F90E1002F05FFA431CF1
:10437000A38915BF606523F4805343F48053A38160
:1043800018BFA38110BDB1F90E1001F083B810F869
:10439000012B11F8013B012A28BF9A42F7D0D01A0D
:1043A0007047034613F8012B002AFBD1181A013875
:1043B000704770B5AAB1451E01396B7811F8014FED
:1043C000A34205F1010606D16FF00104641B1444F9
:1043D000E04202D11C46181B70BD3546002BECD1C3
:1043E000F8E7104670BD30B5036811F8014B013392
:1043F0004CB11A78A2F14105192D98BF2032A24282
:10440000F3D0002030BD0360012030BD2DE9F04124
:104410000F46904602F004FD04460D46B8F1000F29
:1044200011D0C7F30A53C3F16B03002B0BDD1B053F
:1044300003F17F55002405F5401522462B4603F075
:1044400015FBBDE8F08120462946BDE8F08100005B
:104450002DE9F04F9FB0002383468A4616921A93A7
:104460004FF000084FF000091991199B1A780D2A96
:1044700005D8092A13D2002A00F0BE8112E02B2AA7
:1044800006D02D2A02D0202A0CD108E0012200E01B
:10449000002209925A1C19925B782BB9ACE10133C6
:1044A0001993E2E700230993199C2378302B5CD100
:1044B0006378582B01D0782B4CD11AAB0093099B11
:1044C0000193584619A9B14A1BAB01F0DAFE10F06E
:1044D0000706054600F09B85062E05D10134002312
:1044E0001994099300F093BD1A9A3AB11CA835218A
:1044F00002F084FD58461A9902F0FAF91B9A062E2A
:1045000021D8DFE806F0040D08171C0D04004FF059
:104510000009C84617E0DDF87080DDF8749012E0FD
:104520001D9BDDF8708002F2334223F4801343EACE
:10453000025908E0DFF858924FF0000803E06FF0EE
:1045400000494FF0FF38290740F1618549F00049E3
:1045500000F05DBD199B5A1C19925B78302BF9D085
:10456000002B00F05485012300E000230026049373
:10457000199B059303963546199C2778A7F13003BC
:10458000DAB2092A10D8082DD8BF03994FF00A02D1
:10459000D8BF02FB013304F10104D4BF039302FB33
:1045A000063601351994E7E7584602F03BF90168F1
:1045B0000291584602F036F90068FFF7F2FE0299C0
:1045C00002462046FFF7F5FE28B100203B462C4668
:1045D000029007465DE00290584602F023F9006819
:1045E000FFF7DFFE199B02991A1819921B5C002D28
:1045F00047D12846302B05D1199B5A1C19920130FE
:104600005B78F7E7A3F13102082A48D8199A02909B
:10461000002005920446303B00F101012BD0029AA4
:104620000A44029207192146B94213D0013101F11F
:10463000FF3EBEF1080F06DC039A4FF00A0E0EFB98
:1046400002F20392F0E71029DCBF4FF00A0E0EFBD6
:1046500006F6E9E72044082800F1010405DC039A86
:104660000A2101FB0233039304E0102CDCBF0A2172
:1046700001FB06360021199B581C19905B780846EF
:1046800002E02C4608460291A3F130010929C2D963
:104690000127652B01D0452B60D174B905E0652B4E
:1046A00040F0C38400230293012728B9049B002B08
:1046B00000F0A280044600E00024DDF864A00AF1C6
:1046C000010319939AF801302B2B07D02D2B02D020
:1046D0004FF0000C09E04FF0010C01E04FF0000C2E
:1046E0000AF1020319939AF80230A3F13001092963
:1046F00032D81946302904D1199B591C199159787F
:10470000F8E7A1F1310EBEF1080F0B4626D8199B30
:1047100006933039199B03F1010ECDF864E05B7804
:10472000A3F13002092A05D84FF00A0E0EFB013121
:104730003039EFE7069AC2EB0E0EBEF1080F44F6D1
:104740001F6E03DC7145A8BF714600E07146BCF1E5
:10475000000F04D0494202E0CDF864A00021002CF3
:1047600054D1002840F05384049A002A40F04F842A
:10477000002F41D14E2B20D002DC492B0AD03BE048
:10478000692B07D06E2B18D036E000BFD88B000005
:104790000000F07F19A8A649FFF725FE60B3199B1A
:1047A000A449013B19A81993FFF71DFE10B9199BE5
:1047B00001331993DFF894921AE019A89E49FFF784
:1047C00012FEC8B1199B1B78282B0FD119A89B4941
:1047D0001CAA01F08DFF052808D11D9BDDF8708013
:1047E00043F0FF4949F4E00900F011BCDFF86092A2
:1047F0004FF0000800F00BBC169BCDF864A0002B16
:1048000000F010840023099300F003BC029B03987E
:10481000CB1A002D14BFAA46A246102C254604939D
:10482000A8BF102503F0ACF8092D8046894613DD9A
:10483000834B03EBC50353E9122303F017F98046BA
:104840003046894603F09CF802460B4640464946EE
:1048500002F05AFF804689460F2C37DC049B002B60
:1048600000F0D58324DD162B07DC754A02EBC3026A
:10487000D2E900014B46424615E0049AC4F12503F3
:104880009A4223DC6E4DC4F10F0405EBC403D3E957
:10489000000142464B4603F0E9F8049B1C1B05EB64
:1048A000C405D5E9002303F0E1F880468946AEE36C
:1048B000049B13F1160F09DB614AA2EBC3024046C9
:1048C0004946D2E9002303F0FBF9EEE7049B651BA0
:1048D0001D44002D54DD15F00F020AD0584B03EB98
:1048E000C203D3E9000142464B4603F0BFF88046BD
:1048F000894635F00F0500F0B180B5F59A7F0BDDE4
:104900000024A246059403942223CBF80030DFF85C
:104910003C914FF0000880E14946DFF838912D11B5
:10492000404600274E46012D0ADDEA0703D5D9E9A6
:10493000002303F09BF801376D1009F10809F2E735
:104940008046A1F1547906EBC70642464B46D6E9AC
:10495000000103F08BF821F0004389460A461B0D45
:1049600038491B058B428046CAD8A1F580118B427D
:1049700086BFDFF8E4904FF0FF3802F154796DE024
:104980006CD06D4215F00F020AD02D4B03EBC20321
:1049900040464946D3E9002303F092F98046894610
:1049A0002D115BD01F2D04DD0024A2460594039435
:1049B0002CE115F0100F0CBF00236A23224E029346
:1049C00040464946002D08DDEB0703D5D6E9002314
:1049D00003F04CF86D100836F4E7029B80468946D8
:1049E000EBB1C1F30A53C3F16B03002B0A4616DD8A
:1049F0001F2B0EDD342BDEBF203B4FF0FF3101FAC1
:104A000003F34FF00008CCBF4FF05C7903EA0209D2
:104A100005E04FF0FF3202FA03F303EA00084046D4
:104A200049460022002303F089FA0028BCD117E090
:104A3000428B0000F08C00004A8B00009C8B000031
:104A4000088D00000000A07CB08B00000000F07F0B
:104A50000000F8FFD08D0000FFFFEF7F00230293DE
:104A6000039B0093584605995246234601F095FF53
:104A7000059000283FF444AF049A049B002AC3F138
:104A800000034FF00004A8BF00231293A246059B29
:104A90005846596801F0F7FE039000283FF434AF00
:104AA000059B1A69059B023203F10C0192000C3040
:104AB000FDF7FDFF1BAB00931CAB0193584642462C
:104AC0004B46CDE90A8902F01EFA1A9000283FF4FD
:104AD0001BAF5846012101F0EDFF824600283FF44C
:104AE00013AF049B02991C9D23EAE37308931B9B5D
:104AF000002BADBF129A089A129ED618B8BFD21AD0
:104B0000A3EB01032B446FF47F71A8BF089A8B427B
:104B1000C5F1360580F28680C91A1F29A5EB01056B
:104B2000C8BFB3494FF00100D5BF00FA01F3C91A5D
:104B3000139300FA01F3D9BF002306930693139051
:104B40007719029BB74215441D443B46A8BF334624
:104B5000AB42A8BF2B46002BC2BFFF1AED1AF61AB4
:104B6000129B002B63D1002F7ADC089B002B40F0B6
:104B70008180002D00F38880002E00F38F8058463E
:104B80001A99039A02F0EDF8044600283FF4BCAEEF
:104B9000C36808930023C360514602F0C6F800289A
:104BA00080F28A80089B002B40F00A82B8F1000F47
:104BB00040F00682C9F31303002B40F0018229F074
:104BC00000431B0D1B05B3F1D66F40F2F9816369F9
:104BD000002B6DD021460122584602F053F8514671
:104BE000044602F0A2F8002840F3EA8129F00043CD
:104BF000029A1B0D1B05002A00F08D80B3F1D66FC1
:104C000000F38980B3F15C7F00F3DC8122234FF055
:104C100000084FF00009CBF80030059B002B40F056
:104C2000E281F4E1002306930123139388E75146C0
:104C300058461A4601F0D8FF824600283FF464AE79
:104C4000584651461A9A01F03EFF179000283FF44B
:104C50005BAE58461A9901F04BFE179B1A9382E7F8
:104C600058461A993A4602F00DF81A9000287FF437
:104C70007CAF49E658460399089A01F0B5FF0390C6
:104C800000287FF476AF3FE6584603992A4601F0A4
:104C9000F9FF039000287FF46FAF35E65146584680
:104CA000324601F0EFFF824600287FF468AF2BE622
:104CB0002369012B8EDC83E162D1089AC9F31303C7
:104CC00022B34C498B424A462ED1029B414663B1E6
:104CD000494B1340B3F1D46F07D81B0DC3F16B03DD
:104CE0004FF0FF3000FA03F301E04FF0FF33994239
:104CF0001AD1424B9A4202D101313FF405AE3E4BEC
:104D0000134003F580194FF0000859E163B9B8F179
:104D1000000F09D16AE7A3F580136FEA13596FEA10
:104D200009594FF0FF384BE1069B13B113EA090F05
:104D300002E0139B13EA080F00F04281089B029ADD
:104D40004046494653B1FFF761FB02460B46DDE999
:104D50000A0102F0D9FC8046894631E1FFF756FB93
:104D600002460B46DDE90A0102F0CCFC00220023DA
:104D70008046894603F0E2F800287FF447AF1FE140
:104D80002046514602F011F900224FF080430646BA
:104D90000F4603F0E7F8002841D0089B13B100222A
:104DA000174B0FE0B8F1000F03D1C9F313033BB960
:104DB0000DE0B8F1010F03D1B9F1000F3FF426AFB8
:104DC000104B0022CDE9062300260D4F3CE0304673
:104DD000394600220A4B03F0BBF8B8B930463946D1
:104DE0000022094B02F042FE06460F4610E000BFCB
:104DF000E3FBFFFFFFFF0F000000F07FFFFFEF7FEF
:104E00000000F03F0000F0BF0000E03F944F00269C
:104E100007F1004314961593DDE9142312E03046A0
:104E200039468F4B002202F021FE089B06460F46B2
:104E300023B901F100430E900F9301E0CDE90E6715
:104E4000DDE90E23CDE9062329F000452D0D854B24
:104E50002D059D422DD1DDE90A23A9F15479404663
:104E60004946CDE90C2301F0DBFF02460B46DDE9A4
:104E7000060102F0FBFD02460B464046494602F0A1
:104E800043FC21F000431B0D774A1B0593428046EB
:104E90000CD9764B0D9A9A4203D10C9B01333FF407
:104EA00033ADDFF8C8914FF0FF3878E001F1547965
:104EB0003DE0029B3BB3B5F1D46F24D83046394670
:104EC0005FA3D3E9002303F04DF8B8B1394630466B
:104ED00003F08EF8002808BF012002F051FD089B66
:104EE00006460F4623B901F100431090119301E0EB
:104EF000CDE91067DDE91023CDE90623079B03F117
:104F0000D6635B1B0793DDE90A01DDE9068901F041
:104F100087FF02460B464046494602F0A7FD02467F
:104F20000B46DDE90A0102F0EFFB80468946029B51
:104F3000ABBB29F000431B0D1B059D422FD1394609
:104F40003046CDF8189003F02BF802F029FD0B46FF
:104F500002463946304602F0D5FB089BDDF818C002
:104F600006460F462BB9B8F1000F02D1CCF313035C
:104F70007BB13046394634A3D3E9002302F0E8FF81
:104F800088BB3046394632A3D3E9002302F0FEFF46
:104F900004E031A3D3E9002302F0DAFF18BB58463E
:104FA0001A9901F0A5FC5846039901F0A1FC584656
:104FB000514601F09DFC5846214601F099FC66E5FA
:104FC000029B83B12A4B0D9300230C934046494624
:104FD000DDE90C2302F04AFD8046894619B910B973
:104FE0002223CBF8003058461A9901F081FC58462C
:104FF000039901F07DFC5846514601F079FC584672
:10500000059901F075FC5846214601F071FC169B8C
:1050100013B1169A199B1360099B1BB1404609F105
:10502000004107E04046494604E00024029401277D
:10503000FFF731BB1FB0BDE8F08F00BFAFF30080BA
:105040000000C0FFFFFFDF419535A094FFFFDF3F69
:1050500035E5AF350000E03F9535A094FFFFCF3F29
:105060000000E03F0000E07FFFFF9F7CFFFFEF7F3D
:10507000000050392DE9F047404CD4F800900F461D
:105080003D4615F801EB09EB0E04667806F00804BE
:1050900004F0FF060CB12F46F2E774462D2C03D125
:1050A000BD1C7C78012603E02B2C04BF7C78BD1C42
:1050B00013B1102B0AD15AE0302C56D12C7804F0C1
:1050C000DF04582C4CD16C7810230235002E14BF0D
:1050D0004FF000486FF000480027B8FBF3FABE46D7
:1050E00003FB1A8809EB040C9CF801C01CF0040FA8
:1050F00001D0303C0BE01CF0030C1BD0BCF1010FC5
:105100000CBF4FF0370C4FF0570CCCEB04049C4213
:1051100010DAB7F1FF3F0AD0D64506D801D1444591
:1051200003DC03FB0E4E012701E04FF0FF3715F8BB
:10513000014BD7E77C1C73460AD1002E4FF02201A9
:1051400014BF4FF000436FF0004301602AB911E033
:105150000EB1CEF100036AB107B1691E116009E01A
:105160003024002BB2D10823B0E70A23AEE7302C5D
:10517000ACD1A3E71846BDE8F08700BF0402FF1FCB
:105180002DE9F0473B4CD4F800900E46354615F813
:1051900001EB09EB0E04677807F0080404F0FF0741
:1051A0000CB12E46F2E774462D2C03D1B51C747851
:1051B000012703E02B2C04BF7478B51C13B1102B0E
:1051C0000AD151E0302C4DD12C7804F0DF04582C5A
:1051D00043D16C78102302354FF0FF380026B8FB1E
:1051E000F3F803FB08FA6FEA0A0AB64609EB040C67
:1051F0009CF801C01CF0040F01D0303C0BE01CF007
:10520000030C1BD0BCF1010F0CBF4FF0370C4FF05B
:10521000570CCCEB04049C4210DAB6F1FF3F0AD0E5
:10522000C64506D801D1544503DC03FB0E4E0126CA
:1052300001E04FF0FF3615F8014BD7E7741C7346B9
:1052400003D122230360334602E00FB1CEF1000305
:105250006AB106B1691E116009E03024002BBBD190
:105260000823B9E70A23B7E7302CB5D1ACE71846D5
:10527000BDE8F0870402FF1F2DE9F0410C46496BA1
:1052800004F1440399421CD14FF48061FDF766FCA0
:1052900018B94FF0FF30BDE8F0814FF48063A3638D
:1052A00094F84630606380F8FF3394F8453080F816
:1052B000FE3394F8443080F8FD3300F2FD30206076
:1052C00012E0A66B77003A4601F0E2FE05460028A0
:1052D000DFD000EB0608404629463246FDF7E7FBE3
:1052E000C4F800806563A7630020BDE8F08100007A
:1052F00070B50D461446064618B183690BB9FDF723
:1053000085F9224B9C4201D1746808E0204B9C42F5
:1053100001D1B46803E01F4B9C4208BFF468A36945
:10532000A360A3891A0709D523693BB123682069C3
:10533000181A63699842EDB20FDB08E03046214647
:1053400000F03CF80028F1D04FF0FF3070BD30463F
:105350002146FDF7ABF80028F6D1A368013BA36016
:1053600023685A1C22601D7063690130984204D082
:10537000A389DB0707D50A2D05D130462146FDF765
:1053800095F80028E0D1284670BD00BFC48A00000F
:10539000E48A0000048B000038B5074C0546002065
:1053A0002060084611461A46FBF7C2FB431C02D197
:1053B000236803B12B6038BDFC04FF1F314B70B56F
:1053C0001D6806460C4625B1AB6913B92846FDF7A2
:1053D0001DF92D4B9C4201D16C6808E02B4B9C427F
:1053E00001D1AC6803E02A4B9C4208BFEC68A3895A
:1053F0009AB211071DD4D50602D40922326038E0D2
:10540000500712D5616B41B104F14403994202D0B7
:105410003046FDF75FFB00236363A38923F0240379
:10542000A3810023636023692360A38943F00803F9
:10543000A38123694BB9A38903F42073B3F5007FDB
:1054400003D030462146FDF7C5FAA38913F00102C7
:1054500005D00022A26062695242A26103E099076E
:1054600058BF6269A26022694AB903F0800080B225
:1054700030B143F04003A3814FF0FF3070BD0020F6
:1054800070BD00BF0002FF1FC48A0000E48A000054
:10549000048B000038B5064C0023054608462360FF
:1054A000FBF730FB431C02D1236803B12B6038BDEE
:1054B000FC04FF1F2DE9F74F03690C69A3428046E6
:1054C000C0F28180013C01F114074FEA840E00F123
:1054D000140657F8245006EB0E030193013556F8D5
:1054E0002430B3FBF5F507EB0E09C5B34FF0000A06
:1054F0003846B446D34650F8043B9AB21B0C02FB24
:1055000005A26B4303EB124392B2C2EB0B02BCF851
:1055100000B04FEA134A12FA8BF21FFA83FBDCF851
:105520000030CBEB134303EB224392B242EA034237
:1055300048454FEA234B4CF8042BDCD956F80E3083
:105540006BB9019B043BB3421A4602D8C8F810401D
:1055500005E01268043B002AF8D1013CF3E740461D
:1055600001F0E3FB00282CDB013530464FF0000E44
:1055700057F8041BD0F800C08AB2C2EB0E03090C26
:1055800013FA8CF3C1EB1C4202EB23429BB243EAB9
:1055900002434F454FEA224E40F8043BE8D956F803
:1055A000242006EB840362B9043BB3421A4602D8B6
:1055B000C8F8104005E01268043B002AF8D1013C0D
:1055C000F3E7284600E0002003B0BDE8F08F0000BC
:1055D0002DE9F04F456A97B08246239CCDE902231E
:1055E00045B91020FDF744FACAF8240045608560EB
:1055F0000560C560DAF82430196859B15A684A6004
:10560000012393408B60504601F072F9DAF82430A0
:1056100000221A60039BA24A002BBFBF0123236014
:10562000039B23F00043B8BF0393039FA4BF002351
:10563000236027F000431B0D1B0593421DD1229AC6
:1056400042F20F731360029B43B9964A964BC7F31D
:105650001300002814BF1846104600E09248249B0F
:10566000002B00F07385C37813B100F1080300E04C
:10567000C31C249A136000F069BDDDE902450022D5
:1056800020462946002302F059FC804658B1229A50
:1056900001231360249B002B00F04685834818608B
:1056A000013800F053BD15AB009314AB0193504685
:1056B00022462B4601F027FCC7F30A5607905EB13D
:1056C000C5F3130343F07F51204641F44011A6F285
:1056D000FF36CDF84C801DE0159B149E1E446FF4E0
:1056E00082639E42ADBF029A714B029A06F2124348
:1056F000A3BF22FA03F06F4B9B1B9B1BAABF9F40CB
:1057000002FA03F0384302F03BF90123A1F1F871EA
:10571000013E13930022684B01F0F4FF5AA3D3E932
:10572000002302F0A3F95AA3D3E9002301F0ECFF10
:10573000044630460D4602F033F957A3D3E900235F
:1057400002F094F902460B462046294601F0DCFFA0
:1057500004460D4602F024FC2946834600222046DA
:10576000002302F0F5FB58B1584602F019F9024641
:105770000B462046294602F0E1FB08B90BF1FF3B3E
:10578000BBF1160F0DD84D4B03EBCB03D3E9000152
:10579000DDE9022302F0FAFB30B10BF1FF3B0023FD
:1057A00000E00123129300E01290149B9E1B731ED5
:1057B0000A9345BF5B420993002300234CBF0A9321
:1057C0000993BBF1000F07DB0A9BCDF834B05B44B3
:1057D0000A9300230B9308E0099BCBEB0303099387
:1057E000CBF100030B9300230D93209B092B28D8AA
:1057F000052BC4BF043B2093209BA3F10203CCBF25
:1058000000250125032B21D8DFE803F0020E041048
:10581000002300E001230C93219B002B20DC0123BB
:10582000069305931A4619E0002300E001230C9328
:10583000219B5B4406930133012B0593B8BF0123E1
:1058400011E00125002320930C9501E001230C9326
:105850004FF0FF330693059300221223219202E0BA
:10586000219B06930593DAF824400022626004210C
:1058700001F114029A4223D8626801326260490041
:10588000F6E700BFAFF3008061436F63A787D23FA5
:10589000B3C8608B288AC63FFB799F501344D33F1F
:1058A0000000F07FED8C0000F68C0000978B00006C
:1058B000EEFBFFFF0EFCFFFF0000F83F088D00002D
:1058C0005046616800F0DFFFDAF8243020601B6882
:1058D0000893059B0E2B00F24B81002D00F04881B0
:1058E0009DED027BBBF1000F8DED107B31DDB34AE6
:1058F0000BF00F034FEA2B1702EBC303F806D3E9B3
:1059000000450CD5AE4B51EC170BD3E9082302F040
:10591000D7F907F00F07CDE90201032600E00226C0
:10592000DFF89C8277B1F90708D520462946D8E9E7
:10593000002302F09BF8013604460D467F1008F163
:105940000808EFE7DDE9020122462B4602F0B8F92C
:105950001BE0CBF10004DCB1984B994D04F00F0231
:1059600003EBC203DDE91001D3E9002302F07EF866
:10597000241102264CB1E20704D5D5E900230136F3
:1059800002F074F864100835F4E7CDE9020100E094
:105990000226129BDBB1DDE90245002220462946A2
:1059A000884B02F0D5FA90B1059B83B1069B002B82
:1059B00040F3DA80294620460022834B02F056F855
:1059C0000BF1FF37CDE902010136069D01E0059D8F
:1059D0005F469DED027B30468DED0E7B01F0E0FFD2
:1059E000DDE90E2302F042F80022784B01F08CFE34
:1059F0008046A1F15079CDB90022754BDDE90E0149
:105A000001F080FE42464B46CDE9020102F0BEFAAB
:105A1000002840F04682424609F10043DDE90201D8
:105A200002F096FA002840F036829DE0634B0C9914
:105A30006A1E03EBC203002949D0D3E900230020EA
:105A4000644902F03DF942464B4601F05BFEDDE958
:105A50000E89CDE90201089C4946404602F0A0FAB1
:105A6000064601F09DFF02460B464046494601F0BE
:105A700049FE303604F8016BDDE902238046894691
:105A800002F066FA002840F0408342464B46002070
:105A90004C4901F037FEDDE9022302F059FA0028F3
:105AA00040F0D380089BE31AAB425DDADDE90201E6
:105AB0000022454B01F0DAFF0022CDE90201424B02
:105AC0004046494601F0D2FF80468946C4E7D3E903
:105AD000000142464B4601F0C9FF089BCDE9020197
:105AE000DDE90E895C191D464946404602F058FA28
:105AF000064601F055FF303602460B464046494601
:105B000001F000FE05F8016BA5428046894624D1CC
:105B10000022304BDDE9020101F0F6FD02460B46A2
:105B20004046494602F032FA002840F08E80DDE916
:105B300002230020274901F0E5FD02460B464046BE
:105B4000494602F005FA78B114F8013C302B04F113
:105B5000FF3240F0DA821446F6E700221A4B01F0D9
:105B600085FF80468946BFE7DDE91023CDE90223A2
:105B7000159B002BC0F28B80BBF10E0F00F38780CA
:105B80000E4B03EBCB03D3E90067219B002B23DAF9
:105B9000059B002B20DC40F07D81304600220C4B21
:105BA000394601F063FFDDE9022302F0E5F9059DC6
:105BB0002E46002840F0708175E100BF088D00007E
:105BC000D08D00000000F03F0000244000001C4089
:105BD000000014400000E03FDDE90289089C3246E5
:105BE0003B464046494602F06BF802F0D9F90546BB
:105BF00001F0D6FE32463B4601F038FF0B46024626
:105C00004946404601F07EFD05F1300E089B04F840
:105C100001EBC3EB040E059B9E452BD102460B46C0
:105C200001F072FD32463B468046894602F0AEF9ED
:105C300070B94046494632463B4602F07FF900289B
:105C400000F06482EB0703D460E2BB4600E01C4630
:105C500014F8012C392A04F1FF3307D1089A934232
:105C6000F5D1302313700BF1010B13461A78013272
:105C70001A704BE20022A44B01F0F8FE0022002330
:105C80008046894602F05AF90028A8D03EE20C9AD4
:105C9000002A32D0209A012A0ADC139A12B103F2A8
:105CA000334302E0149BC3F136030B9D099C18E0BB
:105CB000059B5D1E0B9BAB42BFBF0B9B0B95EA1A6E
:105CC0000D9BB6BF9B185D1B0D93059BB8BF0025B0
:105CD000002BB9BF099B059A099C059BBCBF9C1A68
:105CE0000023099A1A4409920A9A50461A4401213B
